{
    "txid": "725c49d064e10d526d81a3c9fd7c474d7863d1f52245f8a4db6b5bf942d24d27",
    "version": 2,
    "size": 201,
    "locktime": 0,
    "vin": [
        {
            "txid": "5897de6bd6027a475eadd57019d4e6872c396d0716c4875a5f1a6fcfdf385c1f",
            "vout": 0,
            "scriptSig": {
                "asm": "",
                "hex": ""
            },
            "sequence": 4294967295
        },
        {
            "txid": "bf829c6bcf84579331337659d31f89dfd138f7f7785802d5501c92333145ca7c",
            "vout": 18,
            "scriptSig": {
                "asm": "",
                "hex": ""
            },
            "sequence": 4294967295
        },
        {
            "txid": "22a6f904655d53ae2ff70e701a0bbd90aa3975c0f40bfc6cc996a9049e31cdfc",
            "vout": 1,
            "scriptSig": {
                "asm": "",
                "hex": ""
            },
            "sequence": 4294967295
        }
    ],
    "vout": [
        {
            "value": 0.18,
            "n": 0,
            "scriptPubKey": {
                "asm": "OP_DUP OP_HASH160 7cf96244dec7cfc76c8e54ea9979c69bfc9d823d OP_EQUALVERIFY OP_CHECKSIG",
                "hex": "76a9147cf96244dec7cfc76c8e54ea9979c69bfc9d823d88ac",
                "reqSigs": 1,
                "type": "pubkeyhash",
                "addresses": [
                    "Wa4qRD6Eg9zZAUGA9NYgRDVeW3VEXC1x3N"
                ]
            }
        },
        {
            "value": 4.00,
            "n": 1,
            "scriptPubKey": {
                "asm": "OP_DUP OP_HASH160 efbb910519d75b51718299b746d7163a3a1c0829 OP_EQUALVERIFY OP_CHECKSIG",
                "hex": "76a914efbb910519d75b51718299b746d7163a3a1c082988ac",
                "reqSigs": 1,
                "type": "pubkeyhash",
                "addresses": [
                    "WkXd585snjGTk5cKzHCVyEkSHjPfrS7nTr"
                ]
            }
        }
    ],
    "hex": "02000000031f5c38dfcf6f1a5f5a87c416076d392c87e6d41970d5ad5e477a02d66bde97580000000000ffffffff7cca453133921c50d5025878f7f738d1df891fd359763331935784cf6b9c82bf1200000000fffffffffccd319e04a996c96cfc0bf4c07539aa90bd0b1a700ef72fae535d6504f9a6220100000000ffffffff0280a81201000000001976a9147cf96244dec7cfc76c8e54ea9979c69bfc9d823d88ac0084d717000000001976a914efbb910519d75b51718299b746d7163a3a1c082988ac00000000"
}
